20170808-14:32:26.379 : 8=FIX.4.2|9=67|35=A|34=1|49=DBL|52=20170808-14:32:26.378|56=BME|98=0|108=10|141=Y|10=224|
20170808-14:32:26.383 : 8=FIXT.1.1|9=95|35=5|49=BME|56=DBL|52=20170808-14:32:26.381|34=1|98=0|108=10|141=Y|58=Missing DefaultApplVerID|10=208|
20170808-14:32:26.383 : 8=FIX.4.2|9=49|35=5|34=2|49=DBL|52=20170808-14:32:26.383|56=BME|10=141|
20170808-14:33:13.583 : 8=FIX.4.2|9=67|35=A|34=1|49=DBL|52=20170808-14:33:13.583|56=BME|98=0|108=10|141=Y|10=219|
20170808-14:33:13.590 : 8=FIXT.1.1|9=95|35=5|49=BME|56=DBL|52=20170808-14:33:13.590|34=1|98=0|108=10|141=Y|58=Missing DefaultApplVerID|10=207|
20170808-14:33:13.591 : 8=FIX.4.2|9=49|35=5|34=2|49=DBL|52=20170808-14:33:13.591|56=BME|10=139|
20170808-14:35:40.962 : 8=FIX.4.2|9=67|35=A|34=1|49=DBL|52=20170808-14:35:40.961|56=BME|98=0|108=10|141=Y|10=221|
20170808-14:35:40.963 : 8=FIXT.1.1|9=95|35=5|49=BME|56=DBL|52=20170808-14:35:40.962|34=1|98=0|108=10|141=Y|58=Missing DefaultApplVerID|10=212|
20170808-14:35:40.963 : 8=FIX.4.2|9=49|35=5|34=2|49=DBL|52=20170808-14:35:40.963|56=BME|10=144|
20170808-14:43:20.652 : 8=FIX.4.2|9=67|35=A|34=1|49=DBL|52=20170808-14:43:20.652|56=BME|98=0|108=10|141=Y|10=215|
20170808-14:43:20.654 : 8=FIXT.1.1|9=95|35=5|49=BME|56=DBL|52=20170808-14:43:20.652|34=1|98=0|108=10|141=Y|58=Missing DefaultApplVerID|10=205|
20170808-14:43:20.654 : 8=FIX.4.2|9=49|35=5|34=2|49=DBL|52=20170808-14:43:20.654|56=BME|10=138|
20170808-14:43:33.259 : 8=FIX.4.2|9=67|35=A|34=1|49=DBL|52=20170808-14:43:33.259|56=BME|98=0|108=10|141=Y|10=222|
20170808-14:43:33.263 : 8=FIXT.1.1|9=95|35=5|49=BME|56=DBL|52=20170808-14:43:33.261|34=1|98=0|108=10|141=Y|58=Missing DefaultApplVerID|10=205|
20170808-14:43:33.263 : 8=FIX.4.2|9=49|35=5|34=2|49=DBL|52=20170808-14:43:33.263|56=BME|10=138|
20170808-14:44:54.674 : 8=FIX.4.2|9=67|35=A|34=1|49=DBL|52=20170808-14:44:54.673|56=BME|98=0|108=10|141=Y|10=226|
20170808-14:44:54.677 : 8=FIXT.1.1|9=95|35=5|49=BME|56=DBL|52=20170808-14:44:54.676|34=1|98=0|108=10|141=Y|58=Missing DefaultApplVerID|10=219|
20170808-14:44:54.677 : 8=FIX.4.2|9=49|35=5|34=2|49=DBL|52=20170808-14:44:54.677|56=BME|10=151|
20170808-14:46:07.853 : 8=FIX.4.2|9=67|35=A|34=1|49=DBL|52=20170808-14:46:07.853|56=BME|98=0|108=10|141=Y|10=226|
20170808-14:46:16.478 : 8=FIX.4.2|9=67|35=A|34=1|49=DBL|52=20170808-14:46:16.478|56=BME|98=0|108=10|141=Y|10=229|
20170808-14:46:16.481 : 8=FIXT.1.1|9=95|35=5|49=BME|56=DBL|52=20170808-14:46:16.480|34=1|98=0|108=10|141=Y|58=Missing DefaultApplVerID|10=212|
20170808-14:46:16.482 : 8=FIX.4.2|9=49|35=5|34=2|49=DBL|52=20170808-14:46:16.482|56=BME|10=145|
