20170809-08:31:12.580 : 8=FIXT.1.1|9=98|35=A|34=1|49=DBL|50=SID|52=20170809-08:31:12.579|56=BME|57=TID|98=0|108=100|141=Y|1137=4|1408=x20|10=150|
20170809-08:31:12.583 : 8=FIXT.1.1|9=99|35=A|49=BME|56=DBL|52=20170809-08:31:12.581|34=1|50=TID|57=SID|98=0|108=100|141=Y|1137=9|1408=T4.0|10=161|
