20170809-11:10:37.812 : 8=FIXT.1.1|9=98|35=A|34=1|49=DBL|50=SID|52=20170809-11:10:37.811|56=BME|57=TID|98=0|108=30|141=Y|1137=4|1408=T4.0|10=103|
20170809-11:10:37.816 : 8=FIXT.1.1|9=98|35=A|49=BME|56=DBL|52=20170809-11:10:37.814|34=1|50=TID|57=SID|98=0|108=30|141=Y|1137=9|1408=T4.0|10=111|
20170809-11:11:07.762 : 8=FIXT.1.1|9=49|35=0|34=2|49=DBL|52=20170809-11:11:07.761|56=BME|10=210|
20170809-11:11:08.855 : 8=FIXT.1.1|9=63|35=0|49=BME|56=DBL|52=20170809-11:11:08.852|34=2|50=TID|57=SID|10=222|
20170809-11:11:37.657 : 8=FIXT.1.1|9=49|35=0|34=3|49=DBL|52=20170809-11:11:37.657|56=BME|10=218|
20170809-11:11:39.894 : 8=FIXT.1.1|9=63|35=0|49=BME|56=DBL|52=20170809-11:11:39.891|34=3|50=TID|57=SID|10=230|
20170809-11:12:07.536 : 8=FIXT.1.1|9=49|35=0|34=4|49=DBL|52=20170809-11:12:07.536|56=BME|10=213|
20170809-11:12:10.931 : 8=FIXT.1.1|9=63|35=0|49=BME|56=DBL|52=20170809-11:12:10.930|34=4|50=TID|57=SID|10=215|
20170809-11:12:37.430 : 8=FIXT.1.1|9=49|35=0|34=5|49=DBL|52=20170809-11:12:37.430|56=BME|10=210|
20170809-11:12:41.973 : 8=FIXT.1.1|9=63|35=0|49=BME|56=DBL|52=20170809-11:12:41.972|34=5|50=TID|57=SID|10=226|
20170809-11:13:07.352 : 8=FIXT.1.1|9=49|35=0|34=6|49=DBL|52=20170809-11:13:07.352|56=BME|10=212|
20170809-11:13:12.007 : 8=FIXT.1.1|9=63|35=0|49=BME|56=DBL|52=20170809-11:13:12.007|34=6|50=TID|57=SID|10=215|
20170809-11:15:03.158 : 8=FIXT.1.1|9=98|35=A|34=1|49=DBL|50=SID|52=20170809-11:15:03.157|56=BME|57=TID|98=0|108=30|141=Y|1137=4|1408=T4.0|10=104|
20170809-11:15:03.159 : 8=FIXT.1.1|9=98|35=A|49=BME|56=DBL|52=20170809-11:15:03.158|34=1|50=TID|57=SID|98=0|108=30|141=Y|1137=9|1408=T4.0|10=110|
20170809-11:20:06.606 : 8=FIXT.1.1|9=98|35=A|34=1|49=DBL|50=SID|52=20170809-11:20:06.605|56=BME|57=TID|98=0|108=30|141=Y|1137=4|1408=T4.0|10=101|
20170809-11:20:06.609 : 8=FIXT.1.1|9=98|35=A|49=BME|56=DBL|52=20170809-11:20:06.608|34=1|50=TID|57=SID|98=0|108=30|141=Y|1137=9|1408=T4.0|10=109|
20170809-11:20:36.551 : 8=FIXT.1.1|9=49|35=0|34=2|49=DBL|52=20170809-11:20:36.551|56=BME|10=209|
20170809-11:20:37.639 : 8=FIXT.1.1|9=63|35=0|49=BME|56=DBL|52=20170809-11:20:37.638|34=2|50=TID|57=SID|10=226|
