8=FIX.4.2|9=69|35=A|34=1|49=AP|52=20170808-11:26:50.399|56=INET_2|98=0|108=10|141=Y|10=142|8=FIX.4.2|9=134|35=D|34=2|49=AP|50=SG1|52=20170808-11:26:51.400|56=INET_2|57=BARCA|11=123|21=1|38=1000|40=1|44=2000|54=1|55=APPL|60=20170808-11:26:51|10=065|8=FIX.4.2|9=134|35=D|34=3|49=AP|50=SG1|52=20170808-11:26:52.405|56=INET_2|57=BARCA|11=123|21=1|38=1000|40=1|44=2000|54=1|55=APPL|60=20170808-11:26:52|10=073|8=FIX.4.2|9=134|35=D|34=4|49=AP|50=SG1|52=20170808-11:26:53.411|56=INET_2|57=BARCA|11=123|21=1|38=1000|40=1|44=2000|54=1|55=APPL|60=20170808-11:26:53|10=073|8=FIX.4.2|9=134|35=D|34=5|49=AP|50=SG1|52=20170808-11:26:54.419|56=INET_2|57=BARCA|11=123|21=1|38=1000|40=1|44=2000|54=1|55=APPL|60=20170808-11:26:54|10=084|8=FIX.4.2|9=134|35=D|34=6|49=AP|50=SG1|52=20170808-11:26:55.424|56=INET_2|57=BARCA|11=123|21=1|38=1000|40=1|44=2000|54=1|55=APPL|60=20170808-11:26:55|10=083|