8=FIX.4.3|9=69|35=A|34=1|49=AP|52=20170801-14:01:00.188|56=INET_2|98=0|108=10|141=Y|10=123|