8=FIX.4.2|9=83|35=A|34=1|49=DBL|52=20170809-08:14:26.469|56=BME|98=0|108=10|141=Y|1137=4|1408=x20|10=006|