8=FIXT.1.1|9=98|35=A|34=1|49=DBL|50=SID|52=20170809-08:39:52.785|56=BME|57=TID|98=0|108=100|141=Y|1137=4|1408=x20|10=161|