8=FIXT.1.1|9=98|35=A|34=1|49=DBL|50=SID|52=20170809-11:20:06.605|56=BME|57=TID|98=0|108=30|141=Y|1137=4|1408=T4.0|10=101|8=FIXT.1.1|9=49|35=0|34=2|49=DBL|52=20170809-11:20:36.551|56=BME|10=209|