8=FIX.4.2|9=69|35=A|34=1|49=INET_2|52=20170808-11:26:50.400|56=AP|98=0|108=10|141=Y|10=125|